:020000040800F2
:10000000000002208D060008D5060008D50600086D
:10001000D5060008D5060008D50600080000000037
:10002000000000000000000000000000D5060008ED
:10003000D506000800000000D5060008D506000817
:10004000D5060008D5060008D5060008D506000824
:10005000D5060008D5060008D5060008D506000814
:10006000D5060008D5060008D5060008D506000804
:10007000D5060008D5060008D5060008D5060008F4
:10008000D5060008D5060008D5060008D5060008E4
:10009000D5060008D5060008D5060008D5060008D4
:1000A000D5060008D5060008D5060008D5060008C4
:1000B000D5060008D5060008D5060008D5060008B4
:1000C000D5060008D5060008D5060008D5060008A4
:1000D000D5060008D5060008D5060008D506000894
:1000E000D5060008D5060008D5060008D506000884
:1000F000D5060008D5060008D5060008D506000874
:10010000D5060008D5060008D5060008D506000863
:10011000D5060008D5060008D5060008D506000853
:10012000D5060008D5060008D5060008D506000843
:10013000D5060008D5060008D5060008D506000833
:10014000D5060008D5060008D5060008D506000823
:10015000D5060008D5060008D5060008D506000813
:10016000D5060008D5060008D5060008D506000803
:10017000D5060008D5060008D5060008D5060008F3
:08018000D5060008D5060008B1
:100188000348044B834202D0034B03B1184770471E
:100198000400002004000020000000000548064973
:1001A8000B1AD90F01EBA301491002D0034B03B17D
:1001B80018477047040000200400002000000000D9
:1001C80010B5064C237843B9FFF7DAFF044B13B197
:1001D8000448AFF300800123237010BD0400002001
:1001E80000000000D806000808B5044B1BB10449FC
:1001F8000448AFF30080BDE80840CFE700000000E6
:1002080008000020D806000870B50D4E0D4D761B6D
:10021800B61006D0002455F8043B01349847A6428E
:10022800F9D1094E094D761B00F052FAB61006D0E6
:10023800002455F8043B01349847A642F9D170BD13
:10024800F0060008F0060008F4060008F0060008AA
:10025800002877D070B582B0054600F05BF9012020
:1002680000F072F900F0ECF906460524A6B99CB135
:100278000021284600F0DEF8322000F085F8012140
:10028800284600F0D7F8322000F07EF8013CEDD186
:100298004FF0FF3002B070BD0A34002000F08AF938
:1002A8004FF4A05000F090F94FF4805000F096F908
:1002B8000723009302234FF4A87208214FF480000B
:1002C80000F050F9012000F05DF9392000F09EF9A6
:1002D80098B994B10021284600F0ACF8642000F0E9
:1002E80053F80121284600F0A5F8642000F04CF8E6
:1002F800013CEAD14FF0FF30CCE70F34022000F088
:1003080047F900F04FF9082813D094B10021284686
:1003180000F090F8642000F037F80121284600F03A
:1003280089F8642000F030F8013CEAD14FF0FF3042
:10033800B0E7002000F010F90021284600F07AF814
:100348000020A7E74FF0FF30704708B500F00AF823
:1003580000F034F80120FFF77BFF08BD08B5FFF770
:10036800F4FFFEE74FF0E022D2F8FC3D43F0807343
:10037800C2F8FC3D034B00225A601A6842F00102A1
:100388001A607047001000E0094B5A68094B1B6857
:100398000949A1FB03139B0C03FB00F04FF47A738C
:1003A80003FB00F0024B5B689B1A9842FAD870472F
:1003B800001000E00000002083DE1B432DE9F0411F
:1003C80082B00121082000F013F901248DF80440BF
:1003D8004FF000088DF806800827009702258DF851
:1003E80007508DF80550114E6946304600F038F830
:1003F8002146042000F0FCF88DF804408DF80680B2
:1004080000948DF807508DF80550094D6946284627
:1004180000F026F83946304600F075F8214628469F
:1004280000F071F802B0BDE8F08100BF000C024096
:100438000008024008B50A46012802D0082805D05D
:1004480008BD0121044800F060F8F9E708210348D5
:1004580000F05BF8F4E700BF00080240000C02401F
:1004680000230F2B4ED830B516E0C2681FFA83FE62
:100478004FEA4E044FF0030E0EFA04FE22EA0E0273
:10048800C260C26891F807E00EFA0CFC42EA0C025E
:10049800C26001330F2B34D801229A400C68A24362
:1004A800F7D104684FEA430C032202FA0CF26FEA10
:1004B800020E24EA0202026002680C7904FA0CF4C3
:1004C800224302600A79013AD2B2012ACDD8826861
:1004D8000EEA0202826082684C7904FA0CF4224324
:1004E800826044689DB24FF0010E0EFA05FE24EAC0
:1004F8000E04446044688A79AA4092B2224342605A
:10050800B3E730BD7047018370470AB10183704774
:10051800418370470A4B1A6842F001021A600021B1
:1005280099601A6822F0847222F480321A60054AAF
:100538005A601A6822F480221A60D960704700BF96
:100548000038024010300024024B00229A70987044
:10055800704700BF00380240014B1860704700BF69
:100568000000474241EA82115B08013B41EA03412E
:100578000143009841EA0061014B5960704700BF90
:1005880000380240014B1866704700BF0000474220
:10059800034A936823F0030303439360704700BF43
:1005A80000380240024B986800F00C00704700BF0A
:1005B80000380240034A936823F0F0030343936032
:1005C800704700BF00380240034A936823F4E053A1
:1005D80003439360704700BF00380240034A9368A2
:1005E80023F4604343EAC003936070470038024035
:1005F80021B1054A136B184310637047024A136B05
:1006080023EA000010637047003802404309012BB9
:100618000CD0022B0DD0094B5B6F00F01F0023FAA2
:1006280000F010F0010F07D001207047034B1B6842
:10063800F3E7024B1B6FF0E70020704700380240D9
:1006480000B583B0002301933120FFF7DFFF019B42
:1006580001330193019B642B01D00028F4D0312091
:10066800FFF7D4FF00B1012003B05DF804FB0000E0
:10067800034AD2F8883043F47003C2F888307047D0
:1006880000ED00E0002103E00B4B5B5843500431C0
:100698000A480B4B42189A42F6D30A4A02E0002352
:1006A80042F8043B084B9A42F9D3FFF7E1FFFFF702
:1006B800ABFDFFF753FE7047F80600080000002066
:1006C800040000200400002020000020FEE70000B5
:1006D800F8B500BFF8BC08BC9E467047F8B500BF27
:0806E800F8BC08BC9E467047F7
:0406F000F10100080C
:0406F400C901000830
:0406F8000024F400E6
:040000050800068D5C
:00000001FF
